:100000000C94C8000C94F0000C94F0000C94F000D8
:100010000C94F0000C94F0000C94F0000C94F000A0
:100020000C94F0000C94F0000C94F0000C94F00090
:100030000C94F0000C94F0000C94F0000C94F00080
:100040000C9467050C94F0000C94D7050C94B10542
:100050000C94F0000C94F0000C94F0000C94F00060
:100060000C94F0000C94F000486561727442656174
:1000700074004C6F6E6752656C6561736564005205
:10008000657065617450726573736564004C6F6E62
:10009000675072657373656400446F75626C654385
:1000A0006C69636B656400436C69636B65640052E3
:1000B000656C656173656400507265737365640097
:1000C000B800AF00A70099008D007F0072006800A3
:1000D00028756E6B6E6F776E29003B2062757474A5
:1000E0006F6E53746174653A20003B206576656ECF
:1000F00074547970653A20007669727475616C5039
:10010000696E3A200068616E646C654576656E7450
:1001100028293A200000000000230026002900734F
:100120006574757028293A20726561647900736579
:1001300074757028293A20626567696E00000000B6
:1001400000240027002A0000000000250028002BC2
:100150000004040404040404040202020202020370
:10016000030303030301020408102040800102047A
:1001700008102001020408102000000008000201FD
:100180000000030407000000000000000000090652
:1001900011241FBECFEFD8E0DEBFCDBF12E0A0E03C
:1001A000B1E0E6EDF7E102C005900D92A635B1078A
:1001B000D9F723E0A6E5B2E001C01D92A837B20747
:1001C000E1F710E0C8ECD0E004C02197FE010E94E6
:1001D000E30BC73CD107C9F70E94F8060C94E90B62
:1001E0000C940000833081F028F4813099F0823043
:1001F000A9F008958730A9F08830C9F08430B1F4AF
:10020000809180008F7D03C0809180008F778093E4
:100210008000089584B58F7784BD089584B58F7D5F
:10022000FBCF8091B0008F778093B00008958091CC
:10023000B0008F7DF9CF1F93CF93DF93282F30E04D
:10024000F901E758FE4F8491F901EB59FE4FD49123
:10025000F901EF5AFE4FC491CC23A9F0162F81115A
:100260000E94F200EC2FF0E0EE0FFF1FE95BFE4F63
:10027000A591B4918FB7F894EC91111108C0D09565
:10028000DE23DC938FBFDF91CF911F910895DE2B8A
:10029000F8CFCF93DF9390E0FC01EB59FE4F249110
:1002A0008F5A9E4FFC0184918823D1F090E0880FF3
:1002B000991FFC01E35CFE4FA591B491FC01E95B41
:1002C000FE4FC591D49161110EC09FB7F8948C91E7
:1002D000E22FE0958E238C932881E223E8839FBF51
:1002E000DF91CF9108958FB7F894EC91E22BEC93C6
:1002F0008FBFF6CF8E3008F08E5087708064809369
:100300007C0080917A00806480937A0080917A00EA
:1003100086FDFCCF809178009091790008953FB7D9
:10032000F8948091660290916702A0916802B09162
:10033000690226B5A89B05C02F3F19F00196A11DA3
:10034000B11D3FBFBA2FA92F982F8827BC01CD011F
:10035000620F711D811D911D42E0660F771F881F7E
:10036000991F4A95D1F708958F929F92AF92BF92AD
:10037000CF92DF92EF92FF926B017C010E948F017E
:100380004B015C01C114D104E104F104B9F00E94F5
:100390008F01681979098A099B09683E73408105B4
:1003A000910580F321E0C21AD108E108F10888EE36
:1003B000880E83E0981EA11CB11CE4CFFF90EF9043
:1003C000DF90CF90BF90AF909F908F900895AF92A5
:1003D000BF92CF92DF92EF92FF920F931F93CF9332
:1003E000DF936C017B018B01040F151FEB015E0194
:1003F000AE18BF08C017D10759F06991D601ED9129
:10040000FC910190F081E02DC6010995892B79F7C7
:10041000C501DF91CF911F910F91FF90EF90DF9079
:10042000CF90BF90AF900895FC01538D448D252F40
:1004300030E0842F90E0821B930B541710F0CF967E
:10044000089501970895FC01918D828D981761F0B0
:10045000A28DAE0FBF2FB11D5D968C91928D9F5FC7
:100460009F73928F90E008958FEF9FEF0895FC01A6
:10047000918D828D981731F0828DE80FF11D858D59
:1004800090E008958FEF9FEF0895FC01918D228DEC
:10049000892F90E0805C9F4F821B91098F73992771
:1004A00008958AE692E00E94450221E0892B09F432
:1004B00020E0822F089580E090E0892B29F00E94AF
:1004C000510281110C9400000895FC01A48DA80F25
:1004D000B92FB11DA35ABF4F2C91848D90E0019686
:1004E0008F739927848FA689B7892C93A089B189A6
:1004F0008C91837080648C93938D848D981306C047
:100500000288F389E02D80818F7D80830895EF92AA
:10051000FF920F931F93CF93DF93EC0181E0888FBD
:100520009B8D8C8D98131AC0E889F989808185FF8D
:1005300015C09FB7F894EE89FF896083E889F9892F
:1005400080818370806480839FBF81E090E0DF9131
:10055000CF911F910F91FF90EF900895F62E0B8D84
:1005600010E00F5F1F4F0F731127E02E8C8D8E113F
:100570000CC00FB607FCFACFE889F989808185FFA6
:10058000F5CFCE010E946502F1CFEB8DEC0FFD2F70
:10059000F11DE35AFF4FF0829FB7F8940B8FEA8961
:1005A000FB8980818062CFCF0F931F93CF93DF931E
:1005B0008C01D0E0C0E0F801EC0FFD1F64916623D0
:1005C00041F08AE692E00E948702892B11F0219681
:1005D000F2CFCE01DF91CF911F910F910895CF936C
:1005E000DF93EC01888D8823B9F0AA89BB89E8895B
:1005F000F9898C9185FD03C0808186FD0DC00FB601
:1006000007FCF7CF8C9185FFF2CF808185FFEDCF7E
:10061000CE010E946502E9CFDF91CF910895CF937B
:10062000DF93EC018C890E947A01DC01688D798D61
:100630004D8980E04150550BE82FF0E0E417F507B5
:1006400094F4EE0FFF1FE60FF71F22813381019014
:10065000F081E02D2E0F3F1F36952795A217B30787
:1006600010F08F5FE9CFDF91CF9108951F93CF9363
:10067000DF93EC01162FE881F9810480F581E02DEC
:1006800009959F89811306C0892F90E0DF91CF9152
:100690001F91089581E08927F8CFCF93DF93DC0184
:1006A000ED91FC91A281B3811097B9F0EC012E81FC
:1006B0004481558157FF0CC0ED91FC911197019039
:1006C000F081E02D462FBC01CD01DF91CF9109943F
:1006D000422FFD01DF91CF910994DF91CF910895D1
:1006E000CF93DF9370E0FB01E758FE4F8491FB014D
:1006F000EB59FE4FD4916F5A7E4FFB01C491CC232E
:10070000A1F081110E94F200EC2FF0E0EE0FFF1F2C
:10071000EB5EFE4FA591B491EC91ED2381E090E06A
:1007200009F480E0DF91CF91089580E090E0FACF66
:100730008EE00E947A0125E0AC01249FC001259F34
:10074000900D1124BC0190E080E00E94C60A20E0D8
:1007500030E040E85AE30E94540B9B01AC0160E09A
:1007600070E080EA90E40E94250A20E030E040E852
:100770005FE30E94B80920E030E44CE156E40E94B7
:10078000540B0E94970AE0E3F1E080E0219131915F
:1007900040815181240F351F3695279562177307C5
:1007A00018F08F5F853091F708952FB7F894609116
:1007B00062027091630280916402909165022FBF82
:1007C00008958EBD00000DB407FEFDCF8EB50895CF
:1007D000FC0101900020E9F73197AF01481B590B4C
:1007E000BC018AE692E00C94E7018F929F92AF924F
:1007F000BF920F931F93CF93DF93CDB7DEB7A1972F
:100800000FB6F894DEBF0FBECDBF19A2423008F478
:100810004AE08E010F5D1F4F842E912CB12CA12C2C
:10082000A50194010E94C10BE62FB901CA01EA306B
:10083000F4F4E05DD801EE938D01232B242B252BBE
:1008400079F790E080E0109719F0CD010E94E8035D
:10085000A1960FB6F894DEBF0FBECDBFDF91CF914A
:100860001F910F91BF90AF909F908F900895E95C7A
:10087000E1CFCF93DF930E94E803EC018CE391E09A
:100880000E94E8038C0F9D1FDF91CF910895CF93B5
:10089000C82F60E08AE00E941B0180E00E94E10313
:1008A0008C2F0E94E1038FE391E00E94390462E300
:1008B00070E080E090E00E94B40180E00E94E103DB
:1008C00080E00E94E1038DE491E00E94390461E040
:1008D0008AE0CF910C941B0160E08AE00E941B012A
:1008E00080E00E94E10380E00E94E1038DE491E05A
:1008F0000E94390461E08AE00C941B01CF93C82F59
:1009000060E08AE00E941B0180E00E94E1038C2FDE
:100910000E94E10381E691E00E94390461E08AE0EF
:10092000CF910C941B010F931F93CF93DF938C01F6
:10093000C62FD42F85E091E00E94D40288EF90E08A
:100940000E94D402F801628170E090E080E04AE009
:100950000E94F5038AEE90E00E94D40280ED90E0C0
:10096000C83040F4EC2FF0E0EE0FFF1FE054FF4FD3
:10097000859194910E94D4028AED90E00E94D40265
:100980006D2F70E090E080E04AE00E94F5038CE378
:1009900091E00E94E803F8018281823009F458C096
:1009A00048F48823A9F08130D9F1DF91CF911F91CC
:1009B0000F910895833009F463C08430B1F7C111F9
:1009C00077C08FE292E00E94390482E090E008C094
:1009D000C1110CC08BE691E00E94390487E390E0DE
:1009E000DF91CF911F910F910C944704C43061F4B3
:1009F0008CE791E00E94390487E390E0DF91CF918A
:100A00001F910F910C947E048CE891E0C13069F63F
:100A10000E943904DF91CF911F910F910C946C04C7
:100A2000C11107C08FE991E00E9439048AE290E089
:100A3000D7CFC43039F480EB91E00E9439048AE2C8
:100A400090E0DCCF80EC91E0C13009F0AECFE0CF98
:100A5000C11107C083ED91E00E94390483E190E069
:100A6000BFCFC43039F482EE91E00E94390483E1B3
:100A700090E0C4CF80EF91E0C13009F096CFC8CFAD
:100A8000C11107C081E092E00E9439048BE190E03F
:100A9000A7CFC43039F480E192E00E9439048BE1A1
:100AA00090E0ACCF8EE192E0C13009F07ECFB0CFC4
:100AB000C43039F486E392E00E94390482E090E089
:100AC0009DCFC13009F071CF84E492E0A1CF1F9295
:100AD0000F920FB60F9211242F933F938F939F93F2
:100AE000AF93BF938091620290916302A0916402E0
:100AF000B09165023091610223E0230F2D3758F544
:100B00000196A11DB11D2093610280936202909312
:100B10006302A0936402B093650280916602909193
:100B20006702A0916802B09169020196A11DB11DF2
:100B30008093660290936702A0936802B093690263
:100B4000BF91AF919F918F913F912F910F900FBEC9
:100B50000F901F90189526E8230F0296A11DB11D36
:100B6000D2CF1F920F920FB60F9211242F933F9363
:100B70004F935F936F937F938F939F93AF93BF93A5
:100B8000EF93FF938AE692E00E946502FF91EF9156
:100B9000BF91AF919F918F917F916F915F914F9195
:100BA0003F912F910F900FBE0F901F9018951F929D
:100BB0000F920FB60F9211242F938F939F93EF9361
:100BC000FF93E0917A02F0917B028081E0918002B4
:100BD000F091810282FD1BC09081809183028F5F22
:100BE0008F7320918402821741F0E0918302F0E03C
:100BF000E659FD4F958F80938302FF91EF919F916E
:100C00008F912F910F900FBE0F901F90189580819C
:100C1000F4CF10926D0210926C0288EE93E0A0E087
:100C2000B0E080936E0290936F02A0937002B09335
:100C3000710284E091E090936B0280936A0285ECEC
:100C400090E0909377028093760284EC90E090930A
:100C500079028093780280EC90E090937B028093FD
:100C60007A0281EC90E090937D0280937C0282EC8A
:100C700090E090937F0280937E0286EC90E09093C8
:100C8000810280938002109283021092840210925B
:100C900085021092860210926803109267031092E8
:100CA000690310926A032FE720936D0381E090E0BF
:100CB00090936C0380936B0310925703109256032A
:100CC00031E0309358031092590320935C039093C2
:100CD0005B0380935A03109246031092450332E05F
:100CE000309347031092480320934B0390934A0399
:100CF00080934903109235031092340333E030930C
:100D000036031092370320933A039093390380936C
:100D10003803109224031092230334E03093250308
:100D2000109226032093290390932803809327038E
:100D300010920A031092090310920C0310920B03F5
:100D400084E190E090930E0380930D0388EC90E093
:100D50009093100380930F0320E931E03093120346
:100D60002093110328EE33E03093140320931303F0
:100D70003093160320931503909318038093170361
:100D800088E893E190931A03809319038EE080938F
:100D90001B0386E080931C0385E080931D03109263
:100DA0001E0380E391E09093200380931F0386E26B
:100DB00091E0909322038093210380E027E033E0C9
:100DC00090911D03891768F4E82FF0E0EE0FFF1FE4
:100DD000EA5DFE4F0190F081E02D318320838F5F2B
:100DE000EFCF80E291E0909308038093070308958A
:100DF000789484B5826084BD84B5816084BD85B5F6
:100E0000826085BD85B5816085BD80916E00816001
:100E100080936E00109281008091810082608093A7
:100E200081008091810081608093810080918000A9
:100E30008160809380008091B10084608093B100D4
:100E40008091B00081608093B00080917A008460CE
:100E500080937A0080917A00826080937A008091FA
:100E60007A00816080937A0080917A008068809314
:100E70007A001092C10068EE73E080E090E00E947A
:100E8000B401E0917A02F0917B0282E08083E091EC
:100E90007602F09177021082E0917802F091790267
:100EA00080E1808310928202E0917E02F0917F02C5
:100EB00086E08083E0917C02F0917D0280818061F8
:100EC0008083E0917C02F0917D0280818860808344
:100ED000E0917C02F0917D02808180688083E091C6
:100EE0007C02F0917D0280818F7D80838EE291E093
:100EF0000E94D4028CE391E00E94E80360E08EE05F
:100F00000E94490183E994E090930A0380930903C6
:100F100080910B0390910C039F77856090930C0355
:100F200080930B0361E08AE00E944901CFB7F894F7
:100F300080915602811127C0EBE5F1E08491EFE644
:100F4000F1E09491E82FF0E0EE0FFF1FE35CFE4F1D
:100F5000A591B491EC91E92321F461E08AE00E942B
:100F60001B0161E08AE00E9449018CB580618CBD63
:100F70008CB580648CBD61E08DE00E94490161E028
:100F80008BE00E944901809156028F5F8093560248
:100F9000CFBF60E08AE00E941B0180E00E94E10375
:100FA00080E00E94E10380E10E94E1038FEF0E9454
:100FB000E10361E08AE00E941B018FE191E00E9461
:100FC000D4028CE391E00E94E80388248394E0E05B
:100FD000AE2EE0E0BE2E99249394809159028111A7
:100FE00011C02FB7F8948091620290916302A09192
:100FF0006402B09165022FBF90935802809357020C
:10100000909259022FB7F8948091620290916302F6
:10101000A0916402B09165022FBF209157023091D8
:101020005802AC01421B530B4530510508F494C1E2
:10103000909358028093570287E093E00E949803B0
:10104000082F10E080911D03181708F085C1812F2B
:1010500090E0880F991FE0912103F0912203E80F9F
:10106000F91FC081D181209709F41DC170901E0322
:101070008A810813782488819981DC01ED91FC91A3
:101080000190F081E02D09956B01E881F98184815F
:10109000958191FF09C08C819D8190FDEBC091608D
:1010A0009D838C83D88ACF868C819D8181FFF2C0FD
:1010B0002F813885A601421B530BE881F9812681D7
:1010C00037814217530708F4EEC08D7F9D838C83D0
:1010D0008E818F3709F43EC1E881F9818481958141
:1010E00083709927892B59F18C8187FF14C08985DA
:1010F0009A859601281B390BC901228533858217F1
:10110000930748F062E0CE010E944D038C819D81DF
:101110008F779D838C838C819D8183FF10C0E881B4
:10112000F98129853A85A601421B530B9A01428514
:1011300053852417350718F0877F9D838C83E881BA
:10114000F981848182FF1BC08C819D81282F2170B1
:101150007216A9F082FF13C085FD11C02B853C8556
:10116000A601421B530B248535854217530738F0DF
:1011700080629D838C8364E0CE010E944D03E881F0
:10118000F981848183FF1AC08C819D81282F217071
:101190007216A1F082FF12C086FF87C08D859E85E2
:1011A0009601281B390B808991892817390730F05F
:1011B00065E0CE010E944D03DE86CD868E817816D5
:1011C00009F471C07E828C819D81282F2170721656
:1011D00049F0DC86CB8684609D838C8360E0CE0101
:1011E0000E944D038C819D81282F217072125BC05B
:1011F000E881F98124813581A90143705527452B68
:1012000029F082FD61C0877F9D838C832C813D8185
:10121000A9014072552725FF05C0E881F981848125
:1012200086FD94C026FF05C0E881F981848187FD91
:101230008DC023FF05C0E881F981848184FD86C0CB
:1012400080E024FF0AC0E881F9818481958165E00E
:10125000969587956A95E1F781702B783D832C836D
:10126000882309F475C066E0452BE9F0CE010E94A1
:101270004D0319C08F8598899601281B390B8289E7
:1012800093892817390708F40FCF67E0CE010E9431
:101290004D0308CF2E81721609F41ACF82609D8308
:1012A0008C83D886CF821F5FCDCE2B853C85A6014F
:1012B000421B530B268537854217530708F47ECF10
:1012C00080649D838C8374CF4B855C85B601641BE1
:1012D000750B408551856417750708F094CF21FF81
:1012E00005C083FD15C08F7E9D838C838C819D817D
:1012F00084FD89CFDA86C9869C0128603D832C83D2
:10130000E881F9812481358130FF1BC088687CCF5A
:1013100029853A85A601421B530B22853385421746
:10132000530708F787FF03C08F779D838C838C81D9
:101330009D8180619D838C8363E0CE010E944D037B
:10134000D5CF62E0CE010E944D0360CF81E085CF12
:1013500061E08CCF7E82A7CFA114B10409F43DCE09
:101360000E945102882309F438CE0E94000035CE35
:101370005058BB27AA270E94D0090C941A0B0E9430
:101380000C0B38F00E94130B20F039F49F3F19F436
:1013900026F40C94090B0EF4E095E7FB0C94030B78
:1013A000E92F0E942B0B58F3BA17620773078407C3
:1013B000950720F079F4A6F50C944D0B0EF4E0950A
:1013C0000B2EBA2FA02D0B01B90190010C01CA01FF
:1013D000A0011124FF27591B99F0593F50F4503EAA
:1013E00068F11A16F040A22F232F342F4427585F9C
:1013F000F3CF469537952795A795F0405395C9F7B4
:101400007EF41F16BA0B620B730B840BBAF091506B
:10141000A1F0FF0FBB1F661F771F881FC2F70EC00A
:10142000BA0F621F731F841F48F4879577956795DD
:10143000B795F7959E3F08F0B0CF9395880F08F0C9
:101440009927EE0F9795879508950E94390A0C9475
:101450001A0B0E94130B58F00E940C0B40F029F459
:101460005F3F29F00C94030B51110C944E0B0C941C
:10147000090B0E942B0B68F39923B1F3552391F3C9
:10148000951B550BBB27AA2762177307840738F0F3
:101490009F5F5F4F220F331F441FAA1FA9F335D050
:1014A0000E2E3AF0E0E832D091505040E695001C04
:1014B000CAF72BD0FE2F29D0660F771F881FBB1FBE
:1014C000261737074807AB07B0E809F0BB0B802D9C
:1014D000BF01FF2793585F4F3AF09E3F510578F0C8
:1014E0000C94030B0C944E0B5F3FE4F3983ED4F343
:1014F000869577956795B795F7959F5FC9F7880F9C
:10150000911D9695879597F90895E1E0660F771FED
:10151000881FBB1F621773078407BA0720F0621B7E
:10152000730B840BBA0BEE1F88F7E09508950E94A9
:10153000330B88F09F5798F0B92F9927B751B0F027
:10154000E1F0660F771F881F991F1AF0BA95C9F747
:1015500014C0B13091F00E944D0BB1E008950C948D
:101560004D0B672F782F8827B85F39F0B93FCCF340
:10157000869577956795B395D9F73EF490958095C4
:10158000709561957F4F8F4F9F4F0895E89409C0E4
:1015900097FB3EF490958095709561957F4F8F4FA6
:1015A0009F4F9923A9F0F92F96E9BB279395F695BC
:1015B000879577956795B795F111F8CFFAF4BB0F3A
:1015C00011F460FF1BC06F5F7F4F8F4F9F4F16C09E
:1015D000882311F096E911C0772321F09EE8872F28
:1015E000762F05C0662371F096E8862F70E060E0E4
:1015F0002AF09A95660F771F881FDAF7880F96955D
:10160000879597F9089597F99F6780E870E060E003
:1016100008959FEF80EC089500240A94161617068B
:1016200018060906089500240A94121613061406D3
:1016300005060895092E0394000C11F4882352F036
:10164000BB0F40F4BF2B11F460FF04C06F5F7F4FEE
:101650008F4F9F4F089557FD9058440F551F59F0D5
:101660005F3F71F04795880F97FB991F61F09F3F8F
:1016700079F087950895121613061406551FF2CFB8
:101680004695F1DF08C0161617061806991FF1CF08
:1016900086957105610508940895E894BB2766272F
:1016A0007727CB0197F908950E94670B0C941A0BCA
:1016B0000E940C0B38F00E94130B20F0952311F0C0
:1016C0000C94030B0C94090B11240C944E0B0E94E8
:1016D0002B0B70F3959FC1F3950F50E0551F629F40
:1016E000F001729FBB27F00DB11D639FAA27F00D7B
:1016F000B11DAA1F649F6627B00DA11D661F829FA2
:101700002227B00DA11D621F739FB00DA11D621F86
:10171000839FA00D611D221F749F3327A00D611DA3
:10172000231F849F600D211D822F762F6A2F112485
:101730009F5750409AF0F1F088234AF0EE0FFF1FB8
:10174000BB1F661F771F881F91505040A9F79E3F0F
:10175000510580F00C94030B0C944E0B5F3FE4F3A7
:10176000983ED4F3869577956795B795F795E79565
:101770009F5FC1F7FE2B880F911D9695879597F96E
:101780000895A1E21A2EAA1BBB1BFD010DC0AA1FC2
:10179000BB1FEE1FFF1FA217B307E407F50720F0DA
:1017A000A21BB30BE40BF50B661F771F881F991F55
:1017B0001A9469F760957095809590959B01AC019E
:1017C000BD01CF010895EE0FFF1F0590F491E02DAC
:0617D0000994F894FFCF1C
:1017D600000000008702E7011402EF02450223021F
:1017E600370200000000D50336030F030000000097
:1017F600D5033603980367035603450334032303CF
:1018060044008000DB00570101025E040D0A00203F
:10181600427574746F6E2050726573730020427542
:1018260074746F6E2052656C6561736520544950FF
:101836000020486F6C642054495000566F6C756DDB
:1018460065202D202850726573732900566F6C75BC
:101856006D65202D2028486F6C642900566F6C75C5
:101866006D65202D202852656C65617365290056CB
:101876006F6C756D65202B20285072657373290077
:10188600566F6C756D65202B2028486F6C64290097
:10189600566F6C756D65202B202852656C656173DB
:1018A6006529005365656B202B202850726573737C
:1018B60029005365656B202B2028486F6C6429002E
:1018C6005365656B202B202852656C65617365290D
:1018D600005365656B202D202850726573732900AF
:1018E6005365656B202D2028486F6C64290053656D
:1018F600656B202D202852656C6561736529005340
:101906006F7572636500536F757263652028486F43
:101916006C642900536F75726365202852656C6587
:0619260061736529000059
:00000001FF
